:100000002BC04FC04EC04DC04CC04BC04AC049C0B1
:1000100048C047C046C035C344C043C042C041C0C9
:1000200040C00000000000040302010000010204BF
:1000300008102040800402010101010101010101B9
:1000400002020200003900360000003B00380000C8
:10005000003A00370000B60211241FBECFE5D2E0FF
:10006000DEBFCDBF10E0A0E6B0E0E0EBF9E002C0FB
:1000700005900D92A037B107D9F721E0A0E7B0E0D5
:1000800001C01D92A33DB207E1F710E0C8E5D0E042
:1000900003C02297FE0170D4C635D107D1F75FD4D3
:1000A00085C4AECFEF92FF920F931F93CF93DF9350
:1000B0001F92CDB7DEB77C01FC0100811181C80120
:1000C00069835ED46981681711F0C80161D4C701E2
:1000D0000F90DF91CF911F910F91FF90EF900895B6
:1000E000CF93C82F682F617080916800DAD36C2F8E
:1000F000627080916A00D5D36C2F647080916C001F
:10010000D0D36C2F687080916E00CF91CAC37F925C
:100110008F929F92AF92BF92CF92DF92EF92FF9217
:100120000F931F93CF93DF9300D0CDB7DEB786EF49
:10013000A82E80E0B82E91E9892E90E0992E03E058
:1001400010E0F501E190F1905F01F40171904F0131
:10015000C801029798012150310969019A83898366
:100160001E141F048CF060E0CE0101969BDFDA8242
:10017000C98260E0CE01019695DF1A83098360E0B1
:10018000CE0101968FDF16C06F2DCE0101968ADF5A
:10019000DA82C9826E2DCE01019684DF1A8309832B
:1001A000672DCE0101967EDF0D5F1F4F0C3231E0CF
:1001B000130739F60F900F90DF91CF911F910F9198
:1001C000FF90EF90DF90CF90BF90AF909F908F9077
:1001D0007F9008959F92AF92BF92CF92DF92EF925D
:1001E000FF920F931F93CF93DF93CDB7DEB728977E
:1001F0000FB6F894DEBF0FBECDBFCE0101967C01D5
:1002000088E0D7011D928A95E9F701E010E0992472
:1002100093946E01B9E0CB0ED11CB4E6AB2EB12C99
:1002200087E074D3892BC1F081E090E09093BD0109
:100230008093BC0128960FB6F894DEBF0FBECDBFE9
:10024000DF91CF911F910F91FF90EF90DF90CF90B2
:10025000BF90AF909F905BCF88E890E0C6D180E8D8
:1002600090E0C3D188E790E0C0D180E790E0BDD1B5
:1002700088E890E002D2892590E09A83898380E81B
:1002800090E0FBD1892590E09C838B8388E790E008
:10029000F4D1892590E09E838D8380E790E0EDD1B5
:1002A000892590E098878F83D701E2ECF1E080E028
:1002B00090E02D913D91408151812417350721F027
:1002C0003183208381E090E03296AC15BD0589F73B
:1002D000892B09F4A5CF1FD22091C0013091C10113
:1002E0002F5F3F4F3093C1012093C0014091BE0169
:1002F0005091BF01F901EE0FFF1FEC50FF4F01308D
:10030000110531F0DB01A41BB50BB183A08302C042
:10031000B182A0827093BF016093BE016091C2015F
:100320007091C3018091C4019091C501880F991FFC
:100330004091C6015091C701440F551F440F551FEE
:10034000842B952B862B972B4091C8015091C90186
:10035000F3E0440F551FFA95E1F7842B952BF90133
:10036000E057FF4F8083BCDE00E010E059CFCF9212
:10037000DF92EF92FF920F931F93CF93DF9361E091
:1003800089E08FD268EE73E080E090E0F4D160E025
:1003900089E087D26CE271E080E090E0ECD126EF5A
:1003A000E22E20E0F22E01E910E0C1E0D0E061E0B1
:1003B00089E077D2CE01E4D2C82ECE010196E0D2F8
:1003C000D82ECE010296DCD22C2D30E0322F2227FF
:1003D0002D0D311D121613061CF0C9E0D0E010C01F
:1003E000F701219331937F01F80181938F0160E040
:1003F00089E057D22396CA32F1E0DF07C1F6EDCF8C
:1004000061E089E04ED268EC70E080E090E0B3D12A
:1004100060E089E046D268EC70E080E090E0ABD12B
:10042000219771F7DF91CF911F910F91FF90EF907E
:10043000DF90CF9008950F931F93CF93DF93C0E683
:10044000D0E08881229662E0F3D180E0C836D807F8
:10045000C1F7609160007091610088E890E09ED0E3
:100460006CE070E088E890E0BCD060916200709130
:10047000630080E890E092D06CE070E080E890E06B
:10048000B0D0609164007091650088E790E086D0FC
:100490006CE070E088E790E0A4D060916600709115
:1004A000670080E790E07AD06CE070E080E790E051
:1004B00098D0C8E6D0E08E0161E08881B9D122965B
:1004C00060E0F8018081EDD1F0E0C037DF0799F7F7
:1004D00061E08AE0ADD161E089E0AAD160E08AE024
:1004E000E0D160E089E0DDD162E087E0A1D187E082
:1004F0000DD29093BD018093BC01892B29F0DF912F
:10050000CF911F910F9133CFDF91CF911F910F9119
:100510000895EF92FF920F931F93CF93DF93C6EF4F
:10052000D0E001E910E0E990F990F80181918F01A4
:1005300090E01E141F045CF4D3DDB701882777FD1B
:100540008095982F18D1F1E0CC3BDF0761F7DF9160
:10055000CF911F910F91FF90EF9008958091BC0172
:100560009091BD01892B09F435CED3CF88E890E076
:1005700009D080E890E006D088E790E003D080E7DB
:1005800090E000C0FC0110821182128213828AE086
:1005900090E0958384831682178208950F931F93AA
:1005A000CF93DF931F92CDB7DEB78C01FC01678339
:1005B000862F6983ABD1F80116826981862FA6D177
:1005C000892B19F083E0F8018683A5D0F8016083B8
:1005D0007183828393830F90DF91CF911F910F914D
:1005E0000895FC01758364830895FF920F931F9310
:1005F000CF93DF93EC018F8189D1FF24F394892B72
:1006000009F4F12C8E81982F977F9E8386958170B7
:10061000F81649F080D0688379838A839B838E8122
:1006200092E089271FC077D0088119812A813B81F8
:10063000601B710B820B930B0C811D8120E030E05D
:10064000601771078207930770F08E8181708F1594
:1006500051F061D0688379838A839B838E8191E096
:10066000892788608E838E8183FB882780F9DF91BC
:10067000CF911F910F91FF900895FC0186818170A9
:1006800008951F920F920FB60F9211242F933F934C
:100690008F939F93AF93BF938091CB019091CC01A7
:1006A000A091CD01B091CE013091CA0126E0230F77
:1006B0002D3720F40296A11DB11D05C029E8230F96
:1006C0000396A11DB11D2093CA018093CB01909385
:1006D000CC01A093CD01B093CE018091CF01909138
:1006E000D001A091D101B091D2010196A11DB11DFF
:1006F0008093CF019093D001A093D101B093D20108
:10070000BF91AF919F918F913F912F910F900FBE0D
:100710000F901F9018952FB7F8946091CB017091AE
:10072000CC018091CD019091CE012FBF08953FB7AC
:10073000F8948091CF019091D001A091D101B09116
:10074000D20122B708B600FE05C02F3F19F001966E
:10075000A11DB11D3FBF6627782F892F9A2F620FE9
:10076000711D811D911D43E0660F771F881F991F22
:100770004A95D1F70895CF92DF92EF92FF92CF93EF
:10078000DF936B017C01D3DFEB01C114D104E104E1
:10079000F10479F0EED0CBDF6C1B7D0B683E73402B
:1007A000A0F381E0C81AD108E108F108C851DC4F74
:1007B000ECCFDF91CF91FF90EF90DF90CF90089535
:1007C000789480B7826080BF80B7816080BF83B734
:1007D000826083BF83B7816083BF89B7816089BF2F
:1007E0001EBC8EB582608EBD8EB581608EBD8FB50C
:1007F00081608FBD329A319A3098379A089582304D
:1008000099F018F4813069F00895833019F084303C
:1008100021F008958FB58F7702C08FB58F7D8FBD82
:10082000089580B78F7702C080B78F7D80BF08950D
:10083000CF93DF9390E0FC01E35DFF4F2491FC0137
:10084000E85CFF4F8491882349F190E0880F991F5D
:10085000FC01E15BFF4FA591B491875B9F4FFC01C9
:10086000C591D4919FB7611108C0F8948C912095DF
:1008700082238C93888182230AC0623051F4F894D9
:100880008C91322F309583238C938881822B88839F
:1008900004C0F8948C91822B8C939FBFDF91CF91F1
:1008A00008950F931F93CF93DF931F92CDB7DEB7B9
:1008B000282F30E0F901EE5DFF4F8491F901E35DEF
:1008C000FF4F1491F901E85CFF4F04910023C1F040
:1008D000882319F0698393DF6981E02FF0E0EE0F40
:1008E000FF1FE75BFF4FA591B4919FB7F8948C91E0
:1008F000611103C01095812301C0812B8C939FBF90
:100900000F90DF91CF911F910F910895CF93DF93B7
:10091000282F30E0F901EE5DFF4F8491F901E35D8E
:10092000FF4FD491F901E85CFF4FC491CC2389F0CB
:10093000811165DFEC2FF0E0EE0FFF1FED5BFF4F45
:10094000A591B4912C912D2381E090E021F480E0D9
:1009500002C080E090E0DF91CF910895089530DFEC
:10096000FDDF69DDC0E0D0E0F9DD2097E9F348DB89
:10097000FBCF0895EE0FFF1F0590F491E02D099431
:10098000E199FECF9FBB8EBBE09A99278DB3089566
:10099000262FE199FECF1CBA9FBB8EBB2DBB0FB695
:1009A000F894E29AE19A0FBE01960895F894FFCF69
:1009B000040006000500080000000100020003001A
:00000001FF
